:100000001EC042C041C040C03FC0CBC33DC01FC4A2
:100010003BC03AC039C038C037C036C035C0000018
:100020000000370000000000380002020202020255
:100030000102040810200102000004002104112420
:100040001FBECFE5D2E0DEBFCDBF20E0A8E8B0E024
:1000500001C01D92AB3CB207E1F710E0A0E6B0E0B2
:10006000E6E5F9E002C005900D92A838B107D9F78E
:1000700010E0CFE1D0E003C02197FE0160D4CE3183
:10008000D107D1F7D8D365C4BBCF813021F48AB56D
:100090008F778ABD0895823021F48AB58F7D8ABD1D
:1000A0000895833021F480B78F7D80BF0895843018
:1000B00019F48CB58F7D8CBD08951F93CF93DF937A
:1000C000D62F882384F48F7739F0813039F082304D
:1000D00039F0833039F407C085E005C082E003C001
:1000E00084E001C08FEF282F30E0F901EA5CFF4F78
:1000F0008491F901E05DFF4F1491F901E65DFF4F36
:10010000C491CC23D9F08111C0DFEC2FF0E0EE0FC9
:10011000FF1FEC5DFF4FA591B491D11109C09FB7AE
:10012000F8948C91E12FE095E823EC939FBF06C0F3
:100130008FB7F894EC91E12BEC938FBFDF91CF91C7
:100140001F910895CF93DF93882384F48F7739F03C
:10015000813039F0823039F0833039F407C085E0DE
:1001600005C082E003C084E001C08FEF90E0FC0195
:10017000E05DFF4F2491FC01E65DFF4F84918823F1
:1001800079F190E0880F991FFC01E25EFF4FA59185
:10019000B491FC01EC5DFF4FC591D49161110CC08D
:1001A0009FB7F8948C91E22FE0958E238C93288151
:1001B000E223E8839FBF14C0623061F49FB7F894D4
:1001C0008C91322F309583238C93E881E22BE88346
:1001D0009FBF06C08FB7F894EC91E22BEC938FBFD2
:1001E000DF91CF91089580B7807F80BF80B780680E
:1001F00080BF80B7806480BF8CB580648CBD8FEF7A
:100200008DBD80B7876080BF08958AB582608ABD42
:100210008AB581608ABD83B7887F836083BF789405
:1002200089B7826089BFDFDF86B18877866886B943
:1002300086B1806886B9089508953FB7F894809193
:10024000C7009091C800A091C900B091CA0022B720
:1002500008B601FE05C02F3F19F00196A11DB11D82
:100260003FBFBA2FA92F982F8827820F911DA11D5C
:10027000B11D880F991FAA1FBB1F880F991FAA1FA6
:10028000BB1FBC01CD01660F771F881F991F089502
:10029000CF92DF92EF92FF92CF93DF936B017C01BD
:1002A000CCDFEB0112C081E0C81AD108E108F108E7
:1002B000C851DC4FC2DF6C1B7D0B683E734028F0D9
:1002C000C114D104E104F10471F7C114D104E104B3
:1002D000F10481F7DF91CF91FF90EF90DF90CF9005
:1002E000089508952FB7F894FC01458556853AE0A6
:1002F0006095089420F478B3752378BB04C078B374
:10030000742B78BB0000CED2CDD2CCD2CBD26695A6
:100310003A9581F72FBF81E090E00895DC011F96A8
:10032000ED91FC91509780A191A122A133A1821758
:10033000930761F0DF01A20FB31F8C912F5F3F4F36
:100340002F71332733A322A390E008958FEF9FEFFF
:100350000895DC011F96ED91FC91509720A131A1E9
:1003600082A193A12817390729F0E80FF91F80818E
:1003700090E008958FEF9FEF0895FB0140A151A1F8
:100380009A012F5F3F4F2F71332762A173A1261768
:10039000370731F0DF01A40FB51F8C9331A320A3E1
:1003A0000895DC011F96ED91FC91509780A191A1D9
:1003B000809622A133A1821B930B8F7199270895F8
:1003C000FC0198B1906198B998B1977F98B998B1AC
:1003D0009F7B98B998B1906898B9118A0784F08981
:1003E000E02D82A193A191A380A30895CF92DF92E3
:1003F000EF92FF92CF93DF93EC019A01AB0160E0A3
:1004000072E18AE790E07FD2CA01B90167527109AF
:10041000810991092CE030E040E050E074D269019C
:100420007A01DA01C9010197A109B1098F3F91054C
:10043000A105B10510F0CE01C3DFC98A88B1877F5D
:1004400088B988B1806488B988B18F7788B988B154
:10045000826088B988B1816088B997B38C858095AE
:10046000892387BB98B38C85892B88BB97B38D85EF
:10047000892B87BB98B38D85892B88BB88B1806118
:1004800088B988B1886088B9DF91CF91FF90EF90EB
:10049000DF90CF900895FC011382128288EE93E0E2
:1004A000A0E0B0E084839583A683B78384E690E0E0
:1004B00091838083708B678781E090E0382F01C043
:1004C000330F2A95EAF7348702C0880F991F4A959F
:1004D000E2F7858780958687118A0895019751F400
:1004E0006F3F7F4F39F421E040E06CE870E080EB33
:1004F00090E0D1DF08954091BC0020E038E0D2D1F7
:10050000D1D1D0D1CFD1CED1889476B3742309F094
:10051000089427953A9509F0F3CFC4D1C3D1822F1F
:100520000895DC01ED91FC910190F081E02D099599
:1005300008950F931F93CF93DF93EC016DE0F1DFEC
:100540008C016AE0CE01EDDF800F911FDF91CF912A
:100550001F910F910895CF92DF92EF92FF920F9328
:100560001F93CF93DF938C01DB01C0E0D0E07A01D1
:1005700081E0E81AF108452B99F0F801808191811A
:10058000FC01208131816D01FFEFCF1ADF0A6C91F0
:10059000C801F9010995C80FD91FA701D601E7CFF6
:1005A000CE01DF91CF911F910F91FF90EF90DF90DF
:1005B000CF90089540E855E260E070E080EB90E075
:1005C00015DF61E081E0BEDD0895BFD14F925F92FB
:1005D0006F927F929F92AF92BF92CF92DF92EF92F3
:1005E000FF920F931F93CF93DF93CDB7DEB7A19701
:1005F0000FB6F894DEBF0FBECDBF5C016A017B0170
:10060000922E19A281E0821720F00F2EFAE09F2E81
:10061000F02D8E010F5D1F4F492C512C612C712C38
:10062000C701B601A30192014CD1892D622F40D19F
:100630009C2D981B892F015011099A3014F4805D6C
:1006400001C0895CD8018C93C22ED32EE42EF52EE6
:10065000C114D104E104F104F9F6F801019000207D
:10066000E9F73197AF01401B510BD501ED91FC919A
:100670000280F381E02DB801C5010995A1960FB65E
:10068000F894DEBF0FBECDBFDF91CF911F910F91C8
:10069000FF90EF90DF90CF90BF90AF909F907F90B2
:1006A0006F905F904F900895CF92DF92EF92FF92FC
:1006B0000F931F93CF93DF938C016A017B01211568
:1006C000310549F4DC01ED91FC910190F081E02DC0
:1006D000642F09951CC02A303105C1F4772364F4D6
:1006E0006DE21FDFEC01F094E094D094C094C11C43
:1006F000D11CE11CF11C02C0C0E0D0E02AE0B7012F
:10070000A601C80163DF8C0F9D1F01C05FDFDF9171
:10071000CF911F910F91FF90EF90DF90CF900895B0
:100720000F931F93CF93DF93EC01BEDF8C01CE01BB
:1007300000DF800F911FDF91CF911F910F910895DE
:100740008091880090918900A0918A00B0918B00DF
:100750000196A11DB11D8093880090938900A093FC
:100760008A00B0938B0061E081E0A7DC68EE73E063
:1007700080E090E08DDD60E081E09FDC68EE73E07A
:1007800080E090E085DD4091880050918900609183
:100790008A0070918B002AE030E080EB90E0C0DFAF
:1007A00008951F920F920FB60F9211242F933F932B
:1007B0008F939F93AF93BF938091C3009091C40098
:1007C000A091C500B091C6003091C20026E0230F71
:1007D0002D3730F029E8230F0396A11DB11D03C06A
:1007E0000296A11DB11D2093C2008093C300909377
:1007F000C400A093C500B093C6008091C70090913B
:10080000C800A091C900B091CA000196A11DB11DF8
:100810008093C7009093C800A093C900B093CA000A
:10082000BF91AF919F918F913F912F910F900FBEEC
:100830000F901F90189581B781BFE7DCBBDE80DF8A
:10084000FECF6FEF7FEF81E090E048DE08951F92CA
:100850000F920FB60F9211242F933F934F935F93F4
:100860006F937F938F939F93AF93BF93EF93FF9378
:1008700042DE6091BF007091C0007FDD88B1806171
:1008800088B9FF91EF91BF91AF919F918F917F9127
:100890006F915F914F913F912F910F900FBE0F90ED
:1008A0001F9018958091C100982F9A95F1F708959F
:1008B000002480FD060E660F11F08695D1F7802D7D
:1008C0000895A1E21A2EAA1BBB1BFD010DC0AA1F91
:1008D000BB1FEE1FFF1FA217B307E407F50720F0A9
:1008E000A21BB30BE40BF50B661F771F881F991F24
:1008F0001A9469F760957095809590959B01AC016D
:10090000BD01CF010895052E97FB16F400940FD07A
:1009100057FD05D0D6DF07FC02D046F408C050953D
:100920004095309521953F4F4F4F5F4F08959095DB
:100930008095709561957F4F8F4F9F4F0895EE0F73
:10094000FF1F0590F491E02D099481E090E0F89468
:0609500000C0F894FFCF87
:10095600000000007201AB02D1018E01A9017101F4
:1009660000000000E502AB02E502E502E502E50251
:0809760000000000E502AB02E5
:00000001FF
